{
  "contractName": "medical",
  "abi": [
    {
      "anonymous": false,
      "inputs": [
        {
          "indexed": false,
          "internalType": "string",
          "name": "name",
          "type": "string"
        },
        {
          "indexed": false,
          "internalType": "string",
          "name": "profilePic",
          "type": "string"
        },
        {
          "indexed": false,
          "internalType": "uint256",
          "name": "age",
          "type": "uint256"
        },
        {
          "indexed": false,
          "internalType": "string",
          "name": "clinicLocation",
          "type": "string"
        },
        {
          "indexed": false,
          "internalType": "string",
          "name": "clinicName",
          "type": "string"
        },
        {
          "indexed": false,
          "internalType": "string",
          "name": "specialization",
          "type": "string"
        },
        {
          "indexed": false,
          "internalType": "uint256",
          "name": "contact",
          "type": "uint256"
        },
        {
          "indexed": false,
          "internalType": "uint256",
          "name": "fees",
          "type": "uint256"
        }
      ],
      "name": "doctorAdded",
      "type": "event"
    },
    {
      "anonymous": false,
      "inputs": [
        {
          "indexed": false,
          "internalType": "address",
          "name": "by",
          "type": "address"
        },
        {
          "indexed": false,
          "internalType": "address",
          "name": "to",
          "type": "address"
        }
      ],
      "name": "givenAccess",
      "type": "event"
    },
    {
      "anonymous": false,
      "inputs": [
        {
          "indexed": false,
          "internalType": "string",
          "name": "name",
          "type": "string"
        },
        {
          "indexed": false,
          "internalType": "uint256",
          "name": "age",
          "type": "uint256"
        },
        {
          "indexed": false,
          "internalType": "string",
          "name": "profilePic",
          "type": "string"
        },
        {
          "indexed": false,
          "internalType": "string",
          "name": "bloodgrp",
          "type": "string"
        },
        {
          "indexed": false,
          "internalType": "string",
          "name": "allergies",
          "type": "string"
        },
        {
          "indexed": false,
          "internalType": "string",
          "name": "remarks",
          "type": "string"
        }
      ],
      "name": "patientAdded",
      "type": "event"
    },
    {
      "anonymous": false,
      "inputs": [
        {
          "indexed": true,
          "internalType": "address",
          "name": "patientAddr",
          "type": "address"
        },
        {
          "indexed": true,
          "internalType": "string",
          "name": "problem",
          "type": "string"
        },
        {
          "indexed": false,
          "internalType": "string",
          "name": "medication",
          "type": "string"
        },
        {
          "indexed": false,
          "internalType": "string",
          "name": "remarks",
          "type": "string"
        },
        {
          "indexed": true,
          "internalType": "uint256",
          "name": "date",
          "type": "uint256"
        },
        {
          "indexed": false,
          "internalType": "address",
          "name": "byDoc",
          "type": "address"
        }
      ],
      "name": "reportAdded",
      "type": "event"
    },
    {
      "inputs": [
        {
          "internalType": "uint256",
          "name": "",
          "type": "uint256"
        }
      ],
      "name": "doctorList",
      "outputs": [
        {
          "internalType": "address",
          "name": "",
          "type": "address"
        }
      ],
      "stateMutability": "view",
      "type": "function",
      "constant": true
    },
    {
      "inputs": [
        {
          "internalType": "uint256",
          "name": "",
          "type": "uint256"
        }
      ],
      "name": "patientList",
      "outputs": [
        {
          "internalType": "address",
          "name": "",
          "type": "address"
        }
      ],
      "stateMutability": "view",
      "type": "function",
      "constant": true
    },
    {
      "inputs": [
        {
          "internalType": "string",
          "name": "name",
          "type": "string"
        },
        {
          "internalType": "string",
          "name": "profilePic",
          "type": "string"
        },
        {
          "internalType": "uint256",
          "name": "age",
          "type": "uint256"
        },
        {
          "internalType": "string",
          "name": "clinicLocation",
          "type": "string"
        },
        {
          "internalType": "string",
          "name": "clinicName",
          "type": "string"
        },
        {
          "internalType": "string",
          "name": "specialization",
          "type": "string"
        },
        {
          "internalType": "uint256",
          "name": "contact",
          "type": "uint256"
        },
        {
          "internalType": "uint256",
          "name": "fees",
          "type": "uint256"
        },
        {
          "internalType": "uint256",
          "name": "update",
          "type": "uint256"
        }
      ],
      "name": "addDoctor",
      "outputs": [
        {
          "internalType": "bool",
          "name": "",
          "type": "bool"
        }
      ],
      "stateMutability": "nonpayable",
      "type": "function"
    },
    {
      "inputs": [
        {
          "internalType": "string",
          "name": "name",
          "type": "string"
        },
        {
          "internalType": "uint256",
          "name": "age",
          "type": "uint256"
        },
        {
          "internalType": "string",
          "name": "profilePic",
          "type": "string"
        },
        {
          "internalType": "string",
          "name": "bloodgrp",
          "type": "string"
        },
        {
          "internalType": "string",
          "name": "allergies",
          "type": "string"
        },
        {
          "internalType": "string",
          "name": "remarks",
          "type": "string"
        },
        {
          "internalType": "uint256",
          "name": "update",
          "type": "uint256"
        }
      ],
      "name": "addPatient",
      "outputs": [
        {
          "internalType": "bool",
          "name": "",
          "type": "bool"
        }
      ],
      "stateMutability": "nonpayable",
      "type": "function"
    },
    {
      "inputs": [],
      "name": "getDoctorList",
      "outputs": [
        {
          "internalType": "address[]",
          "name": "",
          "type": "address[]"
        }
      ],
      "stateMutability": "view",
      "type": "function",
      "constant": true
    },
    {
      "inputs": [],
      "name": "getPatientList",
      "outputs": [
        {
          "internalType": "address[]",
          "name": "",
          "type": "address[]"
        }
      ],
      "stateMutability": "view",
      "type": "function",
      "constant": true
    },
    {
      "inputs": [
        {
          "internalType": "address",
          "name": "docAddr",
          "type": "address"
        }
      ],
      "name": "getDoctorByAddress",
      "outputs": [
        {
          "internalType": "string",
          "name": "",
          "type": "string"
        },
        {
          "internalType": "string",
          "name": "",
          "type": "string"
        },
        {
          "internalType": "uint256",
          "name": "",
          "type": "uint256"
        },
        {
          "internalType": "string",
          "name": "",
          "type": "string"
        },
        {
          "internalType": "string",
          "name": "",
          "type": "string"
        },
        {
          "internalType": "string",
          "name": "",
          "type": "string"
        },
        {
          "internalType": "uint256",
          "name": "",
          "type": "uint256"
        },
        {
          "internalType": "uint256",
          "name": "",
          "type": "uint256"
        }
      ],
      "stateMutability": "view",
      "type": "function",
      "constant": true
    },
    {
      "inputs": [
        {
          "internalType": "address",
          "name": "patAddr",
          "type": "address"
        }
      ],
      "name": "getPatientByAddress",
      "outputs": [
        {
          "internalType": "string",
          "name": "",
          "type": "string"
        },
        {
          "internalType": "uint256",
          "name": "",
          "type": "uint256"
        },
        {
          "internalType": "string",
          "name": "",
          "type": "string"
        },
        {
          "internalType": "string",
          "name": "",
          "type": "string"
        },
        {
          "internalType": "string",
          "name": "",
          "type": "string"
        },
        {
          "internalType": "string",
          "name": "",
          "type": "string"
        },
        {
          "internalType": "address[]",
          "name": "",
          "type": "address[]"
        },
        {
          "components": [
            {
              "internalType": "address",
              "name": "doc",
              "type": "address"
            },
            {
              "internalType": "uint256",
              "name": "date",
              "type": "uint256"
            },
            {
              "internalType": "string",
              "name": "problem",
              "type": "string"
            },
            {
              "internalType": "string",
              "name": "medication",
              "type": "string"
            },
            {
              "internalType": "string",
              "name": "remarks",
              "type": "string"
            }
          ],
          "internalType": "struct medical.patientReport[]",
          "name": "",
          "type": "tuple[]"
        }
      ],
      "stateMutability": "view",
      "type": "function",
      "constant": true
    },
    {
      "inputs": [],
      "name": "getYourPatientAccessList",
      "outputs": [
        {
          "internalType": "address[]",
          "name": "",
          "type": "address[]"
        }
      ],
      "stateMutability": "view",
      "type": "function",
      "constant": true
    },
    {
      "inputs": [
        {
          "internalType": "address",
          "name": "patientAddr",
          "type": "address"
        },
        {
          "internalType": "string",
          "name": "problem",
          "type": "string"
        },
        {
          "internalType": "string",
          "name": "medication",
          "type": "string"
        },
        {
          "internalType": "string",
          "name": "remarks",
          "type": "string"
        }
      ],
      "name": "addReport",
      "outputs": [
        {
          "internalType": "bool",
          "name": "",
          "type": "bool"
        }
      ],
      "stateMutability": "nonpayable",
      "type": "function"
    },
    {
      "inputs": [
        {
          "internalType": "address",
          "name": "docAddr",
          "type": "address"
        }
      ],
      "name": "giveAccessToDoc",
      "outputs": [
        {
          "internalType": "bool",
          "name": "",
          "type": "bool"
        }
      ],
      "stateMutability": "nonpayable",
      "type": "function"
    },
    {
      "inputs": [],
      "name": "getAccessedDoctors",
      "outputs": [
        {
          "internalType": "address[]",
          "name": "",
          "type": "address[]"
        }
      ],
      "stateMutability": "view",
      "type": "function",
      "constant": true
    },
    {
      "inputs": [
        {
          "internalType": "address",
          "name": "patientAddr",
          "type": "address"
        }
      ],
      "name": "viewReports",
      "outputs": [
        {
          "components": [
            {
              "internalType": "address",
              "name": "doc",
              "type": "address"
            },
            {
              "internalType": "uint256",
              "name": "date",
              "type": "uint256"
            },
            {
              "internalType": "string",
              "name": "problem",
              "type": "string"
            },
            {
              "internalType": "string",
              "name": "medication",
              "type": "string"
            },
            {
              "internalType": "string",
              "name": "remarks",
              "type": "string"
            }
          ],
          "internalType": "struct medical.patientReport[]",
          "name": "",
          "type": "tuple[]"
        }
      ],
      "stateMutability": "view",
      "type": "function",
      "constant": true
    }
  ],
  "bytecode": "0x608060405234801561001057600080fd5b50613a5a806100206000396000f3fe608060405234801561001057600080fd5b50600436106100cf5760003560e01c8063a71aefc91161008c578063bda5dd5911610066578063bda5dd591461026e578063bfa417a51461028c578063c79726a6146102bc578063c9a9e207146102ec576100cf565b8063a71aefc9146101e9578063ba5c033514610207578063babb1d411461023e576100cf565b8063127ca4b4146100d457806343b43d3414610104578063503b13541461013457806358c5d4bf1461015257806371f2d08c14610189578063a3b50296146101b9575b600080fd5b6100ee60048036038101906100e991906128e4565b61030a565b6040516100fb9190612952565b60405180910390f35b61011e60048036038101906101199190612ab3565b610349565b60405161012b9190612c24565b60405180910390f35b61013c6107af565b6040516101499190612cfd565b60405180910390f35b61016c60048036038101906101679190612d4b565b61083d565b604051610180989796959493929190612e0f565b60405180910390f35b6101a3600480360381019061019e9190612eb0565b610c0d565b6040516101b09190612c24565b60405180910390f35b6101d360048036038101906101ce9190612f6b565b610fda565b6040516101e09190612c24565b60405180910390f35b6101f16113ac565b6040516101fe9190612cfd565b60405180910390f35b610221600480360381019061021c9190612d4b565b61143a565b604051610235989796959493929190613238565b60405180910390f35b610258600480360381019061025391906128e4565b611aff565b6040516102659190612952565b60405180910390f35b610276611b3e565b6040516102839190612cfd565b60405180910390f35b6102a660048036038101906102a19190612d4b565b611c0c565b6040516102b39190612c24565b60405180910390f35b6102d660048036038101906102d19190612d4b565b611f6a565b6040516102e391906132e7565b60405180910390f35b6102f461265f565b6040516103019190612cfd565b60405180910390f35b6001818154811061031a57600080fd5b906000526020600020016000915054906101000a900473ffffffffffffffffffffffffffffffffffffffff1681565b600080339050600083036103de576000600360008373ffffffffffffffffffffffffffffffffffffffff1673ffffffffffffffffffffffffffffffffffffffff1681526020019081526020016000206002015411156103dd576040517f08c379a00000000000000000000000000000000000000000000000000000000081526004016103d490613355565b60405180910390fd5b5b6000600260008373ffffffffffffffffffffffffffffffffffffffff1673ffffffffffffffffffffffffffffffffffffffff168152602001908152602001600020600101541115610464576040517f08c379a000000000000000000000000000000000000000000000000000000000815260040161045b906133c1565b60405180910390fd5b8a600360008373ffffffffffffffffffffffffffffffffffffffff1673ffffffffffffffffffffffffffffffffffffffff16815260200190815260200160002060000190805190602001906104ba9291906127b2565b5088600360008373ffffffffffffffffffffffffffffffffffffffff1673ffffffffffffffffffffffffffffffffffffffff1681526020019081526020016000206002018190555089600360008373ffffffffffffffffffffffffffffffffffffffff1673ffffffffffffffffffffffffffffffffffffffff16815260200190815260200160002060010190805190602001906105589291906127b2565b5087600360008373ffffffffffffffffffffffffffffffffffffffff1673ffffffffffffffffffffffffffffffffffffffff16815260200190815260200160002060040190805190602001906105af9291906127b2565b5086600360008373ffffffffffffffffffffffffffffffffffffffff1673ffffffffffffffffffffffffffffffffffffffff16815260200190815260200160002060050190805190602001906106069291906127b2565b5085600360008373ffffffffffffffffffffffffffffffffffffffff1673ffffffffffffffffffffffffffffffffffffffff168152602001908152602001600020600601908051906020019061065d9291906127b2565b5084600360008373ffffffffffffffffffffffffffffffffffffffff1673ffffffffffffffffffffffffffffffffffffffff1681526020019081526020016000206007018190555083600360008373ffffffffffffffffffffffffffffffffffffffff1673ffffffffffffffffffffffffffffffffffffffff1681526020019081526020016000206008018190555060008303610758576001819080600181540180825580915050600190039060005260206000200160009091909190916101000a81548173ffffffffffffffffffffffffffffffffffffffff021916908373ffffffffffffffffffffffffffffffffffffffff1602179055505b7f9a70994568e98c8ffd05f5985e1d091601854fe90270d932583e058f73f6198a8b8b8b8b8b8b8b8b604051610795989796959493929190612e0f565b60405180910390a160019150509998505050505050505050565b6060600080548060200260200160405190810160405280929190818152602001828054801561083357602002820191906000526020600020905b8160009054906101000a900473ffffffffffffffffffffffffffffffffffffffff1673ffffffffffffffffffffffffffffffffffffffff16815260200190600101908083116107e9575b5050505050905090565b606080600060608060606000806000600360008b73ffffffffffffffffffffffffffffffffffffffff1673ffffffffffffffffffffffffffffffffffffffff16815260200190815260200160002060020154036108cf576040517f08c379a00000000000000000000000000000000000000000000000000000000081526004016108c690613453565b60405180910390fd5b6000600360008b73ffffffffffffffffffffffffffffffffffffffff1673ffffffffffffffffffffffffffffffffffffffff16815260200190815260200160002090508060000181600101826002015483600401846005018560060186600701548760080154878054610941906134a2565b80601f016020809104026020016040519081016040528092919081815260200182805461096d906134a2565b80156109ba5780601f1061098f576101008083540402835291602001916109ba565b820191906000526020600020905b81548152906001019060200180831161099d57829003601f168201915b505050505097508680546109cd906134a2565b80601f01602080910402602001604051908101604052809291908181526020018280546109f9906134a2565b8015610a465780601f10610a1b57610100808354040283529160200191610a46565b820191906000526020600020905b815481529060010190602001808311610a2957829003601f168201915b50505050509650848054610a59906134a2565b80601f0160208091040260200160405190810160405280929190818152602001828054610a85906134a2565b8015610ad25780601f10610aa757610100808354040283529160200191610ad2565b820191906000526020600020905b815481529060010190602001808311610ab557829003601f168201915b50505050509450838054610ae5906134a2565b80601f0160208091040260200160405190810160405280929190818152602001828054610b11906134a2565b8015610b5e5780601f10610b3357610100808354040283529160200191610b5e565b820191906000526020600020905b815481529060010190602001808311610b4157829003601f168201915b50505050509350828054610b71906134a2565b80601f0160208091040260200160405190810160405280929190818152602001828054610b9d906134a2565b8015610bea5780601f10610bbf57610100808354040283529160200191610bea565b820191906000526020600020905b815481529060010190602001808311610bcd57829003601f168201915b505050505092509850985098509850985098509850985050919395975091939597565b600080600360003373ffffffffffffffffffffffffffffffffffffffff1673ffffffffffffffffffffffffffffffffffffffff1681526020019081526020016000206002015403610c93576040517f08c379a0000000000000000000000000000000000000000000000000000000008152600401610c8a9061351f565b60405180910390fd5b60005b600360003373ffffffffffffffffffffffffffffffffffffffff1673ffffffffffffffffffffffffffffffffffffffff16815260200190815260200160002060030180549050811015610f96578573ffffffffffffffffffffffffffffffffffffffff16600360003373ffffffffffffffffffffffffffffffffffffffff1673ffffffffffffffffffffffffffffffffffffffff1681526020019081526020016000206003018281548110610d4e57610d4d61353f565b5b9060005260206000200160009054906101000a900473ffffffffffffffffffffffffffffffffffffffff1673ffffffffffffffffffffffffffffffffffffffff1603610f8357610d9c612838565b33816000019073ffffffffffffffffffffffffffffffffffffffff16908173ffffffffffffffffffffffffffffffffffffffff168152505085816040018190525084816060018190525083816080018190525042816020018181525050600260008873ffffffffffffffffffffffffffffffffffffffff1673ffffffffffffffffffffffffffffffffffffffff16815260200190815260200160002060070181908060018154018082558091505060019003906000526020600020906005020160009091909190915060008201518160000160006101000a81548173ffffffffffffffffffffffffffffffffffffffff021916908373ffffffffffffffffffffffffffffffffffffffff160217905550602082015181600101556040820151816002019080519060200190610ed29291906127b2565b506060820151816003019080519060200190610eef9291906127b2565b506080820151816004019080519060200190610f0c9291906127b2565b5050504286604051610f1e91906135aa565b60405180910390208873ffffffffffffffffffffffffffffffffffffffff167f1326247533c3eded1a9209c0aa9fbc321061cb7a98599ce7fb6bc1bd8b39fe81888833604051610f70939291906135c1565b60405180910390a4600192505050610fd2565b8080610f8e90613635565b915050610c96565b506040517f08c379a0000000000000000000000000000000000000000000000000000000008152600401610fc9906136ef565b60405180910390fd5b949350505050565b6000803390506000600360008373ffffffffffffffffffffffffffffffffffffffff1673ffffffffffffffffffffffffffffffffffffffff168152602001908152602001600020600201541115611066576040517f08c379a000000000000000000000000000000000000000000000000000000000815260040161105d9061375b565b60405180910390fd5b600083036110f5576000600260008373ffffffffffffffffffffffffffffffffffffffff1673ffffffffffffffffffffffffffffffffffffffff1681526020019081526020016000206001015411156110f4576040517f08c379a00000000000000000000000000000000000000000000000000000000081526004016110eb906137c7565b60405180910390fd5b5b88600260008373ffffffffffffffffffffffffffffffffffffffff1673ffffffffffffffffffffffffffffffffffffffff168152602001908152602001600020600001908051906020019061114b9291906127b2565b5087600260008373ffffffffffffffffffffffffffffffffffffffff1673ffffffffffffffffffffffffffffffffffffffff1681526020019081526020016000206001018190555086600260008373ffffffffffffffffffffffffffffffffffffffff1673ffffffffffffffffffffffffffffffffffffffff16815260200190815260200160002060020190805190602001906111e99291906127b2565b5085600260008373ffffffffffffffffffffffffffffffffffffffff1673ffffffffffffffffffffffffffffffffffffffff16815260200190815260200160002060030190805190602001906112409291906127b2565b5084600260008373ffffffffffffffffffffffffffffffffffffffff1673ffffffffffffffffffffffffffffffffffffffff16815260200190815260200160002060040190805190602001906112979291906127b2565b5083600260008373ffffffffffffffffffffffffffffffffffffffff1673ffffffffffffffffffffffffffffffffffffffff16815260200190815260200160002060050190805190602001906112ee9291906127b2565b506000830361135b576000819080600181540180825580915050600190039060005260206000200160009091909190916101000a81548173ffffffffffffffffffffffffffffffffffffffff021916908373ffffffffffffffffffffffffffffffffffffffff1602179055505b7fd04b836c80bc9bc65510a2ac6d88b469db2eb6eda7d8937c8c80ed0fe63bc765898989898989604051611394969594939291906137e7565b60405180910390a16001915050979650505050505050565b6060600180548060200260200160405190810160405280929190818152602001828054801561143057602002820191906000526020600020905b8160009054906101000a900473ffffffffffffffffffffffffffffffffffffffff1673ffffffffffffffffffffffffffffffffffffffff16815260200190600101908083116113e6575b5050505050905090565b606060006060806060806060806000600260008b73ffffffffffffffffffffffffffffffffffffffff1673ffffffffffffffffffffffffffffffffffffffff16815260200190815260200160002060010154036114cc576040517f08c379a00000000000000000000000000000000000000000000000000000000081526004016114c3906138dd565b60405180910390fd5b6000600260008b73ffffffffffffffffffffffffffffffffffffffff1673ffffffffffffffffffffffffffffffffffffffff168152602001908152602001600020905080600001816001015482600201836003018460040185600501866006018760070187805461153c906134a2565b80601f0160208091040260200160405190810160405280929190818152602001828054611568906134a2565b80156115b55780601f1061158a576101008083540402835291602001916115b5565b820191906000526020600020905b81548152906001019060200180831161159857829003601f168201915b505050505097508580546115c8906134a2565b80601f01602080910402602001604051908101604052809291908181526020018280546115f4906134a2565b80156116415780601f1061161657610100808354040283529160200191611641565b820191906000526020600020905b81548152906001019060200180831161162457829003601f168201915b50505050509550848054611654906134a2565b80601f0160208091040260200160405190810160405280929190818152602001828054611680906134a2565b80156116cd5780601f106116a2576101008083540402835291602001916116cd565b820191906000526020600020905b8154815290600101906020018083116116b057829003601f168201915b505050505094508380546116e0906134a2565b80601f016020809104026020016040519081016040528092919081815260200182805461170c906134a2565b80156117595780601f1061172e57610100808354040283529160200191611759565b820191906000526020600020905b81548152906001019060200180831161173c57829003601f168201915b5050505050935082805461176c906134a2565b80601f0160208091040260200160405190810160405280929190818152602001828054611798906134a2565b80156117e55780601f106117ba576101008083540402835291602001916117e5565b820191906000526020600020905b8154815290600101906020018083116117c857829003601f168201915b505050505092508180548060200260200160405190810160405280929190818152602001828054801561186d57602002820191906000526020600020905b8160009054906101000a900473ffffffffffffffffffffffffffffffffffffffff1673ffffffffffffffffffffffffffffffffffffffff1681526020019060010190808311611823575b5050505050915080805480602002602001604051908101604052809291908181526020016000905b82821015611add57838290600052602060002090600502016040518060a00160405290816000820160009054906101000a900473ffffffffffffffffffffffffffffffffffffffff1673ffffffffffffffffffffffffffffffffffffffff1673ffffffffffffffffffffffffffffffffffffffff16815260200160018201548152602001600282018054611928906134a2565b80601f0160208091040260200160405190810160405280929190818152602001828054611954906134a2565b80156119a15780601f10611976576101008083540402835291602001916119a1565b820191906000526020600020905b81548152906001019060200180831161198457829003601f168201915b505050505081526020016003820180546119ba906134a2565b80601f01602080910402602001604051908101604052809291908181526020018280546119e6906134a2565b8015611a335780601f10611a0857610100808354040283529160200191611a33565b820191906000526020600020905b815481529060010190602001808311611a1657829003601f168201915b50505050508152602001600482018054611a4c906134a2565b80601f0160208091040260200160405190810160405280929190818152602001828054611a78906134a2565b8015611ac55780601f10611a9a57610100808354040283529160200191611ac5565b820191906000526020600020905b815481529060010190602001808311611aa857829003601f168201915b50505050508152505081526020019060010190611895565b5050505090509850985098509850985098509850985050919395975091939597565b60008181548110611b0f57600080fd5b906000526020600020016000915054906101000a900473ffffffffffffffffffffffffffffffffffffffff1681565b6060600260003373ffffffffffffffffffffffffffffffffffffffff1673ffffffffffffffffffffffffffffffffffffffff168152602001908152602001600020600601805480602002602001604051908101604052809291908181526020018280548015611c0257602002820191906000526020600020905b8160009054906101000a900473ffffffffffffffffffffffffffffffffffffffff1673ffffffffffffffffffffffffffffffffffffffff1681526020019060010190808311611bb8575b5050505050905090565b600080600360008473ffffffffffffffffffffffffffffffffffffffff1673ffffffffffffffffffffffffffffffffffffffff1681526020019081526020016000206002015403611c92576040517f08c379a0000000000000000000000000000000000000000000000000000000008152600401611c899061351f565b60405180910390fd5b60005b600360008473ffffffffffffffffffffffffffffffffffffffff1673ffffffffffffffffffffffffffffffffffffffff16815260200190815260200160002060030180549050811015611de1573373ffffffffffffffffffffffffffffffffffffffff16600360008573ffffffffffffffffffffffffffffffffffffffff1673ffffffffffffffffffffffffffffffffffffffff1681526020019081526020016000206003018281548110611d4d57611d4c61353f565b5b9060005260206000200160009054906101000a900473ffffffffffffffffffffffffffffffffffffffff1673ffffffffffffffffffffffffffffffffffffffff1603611dce576040517f08c379a0000000000000000000000000000000000000000000000000000000008152600401611dc590613949565b60405180910390fd5b8080611dd990613635565b915050611c95565b50600360008373ffffffffffffffffffffffffffffffffffffffff1673ffffffffffffffffffffffffffffffffffffffff168152602001908152602001600020600301339080600181540180825580915050600190039060005260206000200160009091909190916101000a81548173ffffffffffffffffffffffffffffffffffffffff021916908373ffffffffffffffffffffffffffffffffffffffff160217905550600260003373ffffffffffffffffffffffffffffffffffffffff1673ffffffffffffffffffffffffffffffffffffffff168152602001908152602001600020600601829080600181540180825580915050600190039060005260206000200160009091909190916101000a81548173ffffffffffffffffffffffffffffffffffffffff021916908373ffffffffffffffffffffffffffffffffffffffff1602179055507f75072c88a386fa0175795ff048be42608ab8fb7c49b0bd7270b3cf6b38c3645e3383604051611f59929190613969565b60405180910390a160019050919050565b60608173ffffffffffffffffffffffffffffffffffffffff163373ffffffffffffffffffffffffffffffffffffffff160361225457600260008373ffffffffffffffffffffffffffffffffffffffff1673ffffffffffffffffffffffffffffffffffffffff168152602001908152602001600020600701805480602002602001604051908101604052809291908181526020016000905b8282101561224957838290600052602060002090600502016040518060a00160405290816000820160009054906101000a900473ffffffffffffffffffffffffffffffffffffffff1673ffffffffffffffffffffffffffffffffffffffff1673ffffffffffffffffffffffffffffffffffffffff16815260200160018201548152602001600282018054612094906134a2565b80601f01602080910402602001604051908101604052809291908181526020018280546120c0906134a2565b801561210d5780601f106120e25761010080835404028352916020019161210d565b820191906000526020600020905b8154815290600101906020018083116120f057829003601f168201915b50505050508152602001600382018054612126906134a2565b80601f0160208091040260200160405190810160405280929190818152602001828054612152906134a2565b801561219f5780601f106121745761010080835404028352916020019161219f565b820191906000526020600020905b81548152906001019060200180831161218257829003601f168201915b505050505081526020016004820180546121b8906134a2565b80601f01602080910402602001604051908101604052809291908181526020018280546121e4906134a2565b80156122315780601f1061220657610100808354040283529160200191612231565b820191906000526020600020905b81548152906001019060200180831161221457829003601f168201915b50505050508152505081526020019060010190612001565b50505050905061265a565b60005b600360003373ffffffffffffffffffffffffffffffffffffffff1673ffffffffffffffffffffffffffffffffffffffff1681526020019081526020016000206003018054905081101561261e578273ffffffffffffffffffffffffffffffffffffffff16600360003373ffffffffffffffffffffffffffffffffffffffff1673ffffffffffffffffffffffffffffffffffffffff168152602001908152602001600020600301828154811061230f5761230e61353f565b5b9060005260206000200160009054906101000a900473ffffffffffffffffffffffffffffffffffffffff1673ffffffffffffffffffffffffffffffffffffffff160361260b57600260008473ffffffffffffffffffffffffffffffffffffffff1673ffffffffffffffffffffffffffffffffffffffff168152602001908152602001600020600701805480602002602001604051908101604052809291908181526020016000905b828210156125ff57838290600052602060002090600502016040518060a00160405290816000820160009054906101000a900473ffffffffffffffffffffffffffffffffffffffff1673ffffffffffffffffffffffffffffffffffffffff1673ffffffffffffffffffffffffffffffffffffffff1681526020016001820154815260200160028201805461244a906134a2565b80601f0160208091040260200160405190810160405280929190818152602001828054612476906134a2565b80156124c35780601f10612498576101008083540402835291602001916124c3565b820191906000526020600020905b8154815290600101906020018083116124a657829003601f168201915b505050505081526020016003820180546124dc906134a2565b80601f0160208091040260200160405190810160405280929190818152602001828054612508906134a2565b80156125555780601f1061252a57610100808354040283529160200191612555565b820191906000526020600020905b81548152906001019060200180831161253857829003601f168201915b5050505050815260200160048201805461256e906134a2565b80601f016020809104026020016040519081016040528092919081815260200182805461259a906134a2565b80156125e75780601f106125bc576101008083540402835291602001916125e7565b820191906000526020600020905b8154815290600101906020018083116125ca57829003601f168201915b505050505081525050815260200190600101906123b7565b5050505091505061265a565b808061261690613635565b915050612257565b506040517f08c379a000000000000000000000000000000000000000000000000000000000815260040161265190613a04565b60405180910390fd5b919050565b60606000600360003373ffffffffffffffffffffffffffffffffffffffff1673ffffffffffffffffffffffffffffffffffffffff16815260200190815260200160002060020154036126e6576040517f08c379a00000000000000000000000000000000000000000000000000000000081526004016126dd9061351f565b60405180910390fd5b600360003373ffffffffffffffffffffffffffffffffffffffff1673ffffffffffffffffffffffffffffffffffffffff1681526020019081526020016000206003018054806020026020016040519081016040528092919081815260200182805480156127a857602002820191906000526020600020905b8160009054906101000a900473ffffffffffffffffffffffffffffffffffffffff1673ffffffffffffffffffffffffffffffffffffffff168152602001906001019080831161275e575b5050505050905090565b8280546127be906134a2565b90600052602060002090601f0160209004810192826127e05760008555612827565b82601f106127f957805160ff1916838001178555612827565b82800160010185558215612827579182015b8281111561282657825182559160200191906001019061280b565b5b509050612834919061287d565b5090565b6040518060a00160405280600073ffffffffffffffffffffffffffffffffffffffff168152602001600081526020016060815260200160608152602001606081525090565b5b8082111561289657600081600090555060010161287e565b5090565b6000604051905090565b600080fd5b600080fd5b6000819050919050565b6128c1816128ae565b81146128cc57600080fd5b50565b6000813590506128de816128b8565b92915050565b6000602082840312156128fa576128f96128a4565b5b6000612908848285016128cf565b91505092915050565b600073ffffffffffffffffffffffffffffffffffffffff82169050919050565b600061293c82612911565b9050919050565b61294c81612931565b82525050565b60006020820190506129676000830184612943565b92915050565b600080fd5b600080fd5b6000601f19601f8301169050919050565b7f4e487b7100000000000000000000000000000000000000000000000000000000600052604160045260246000fd5b6129c082612977565b810181811067ffffffffffffffff821117156129df576129de612988565b5b80604052505050565b60006129f261289a565b90506129fe82826129b7565b919050565b600067ffffffffffffffff821115612a1e57612a1d612988565b5b612a2782612977565b9050602081019050919050565b82818337600083830152505050565b6000612a56612a5184612a03565b6129e8565b905082815260208101848484011115612a7257612a71612972565b5b612a7d848285612a34565b509392505050565b600082601f830112612a9a57612a9961296d565b5b8135612aaa848260208601612a43565b91505092915050565b60008060008060008060008060006101208a8c031215612ad657612ad56128a4565b5b60008a013567ffffffffffffffff811115612af457612af36128a9565b5b612b008c828d01612a85565b99505060208a013567ffffffffffffffff811115612b2157612b206128a9565b5b612b2d8c828d01612a85565b9850506040612b3e8c828d016128cf565b97505060608a013567ffffffffffffffff811115612b5f57612b5e6128a9565b5b612b6b8c828d01612a85565b96505060808a013567ffffffffffffffff811115612b8c57612b8b6128a9565b5b612b988c828d01612a85565b95505060a08a013567ffffffffffffffff811115612bb957612bb86128a9565b5b612bc58c828d01612a85565b94505060c0612bd68c828d016128cf565b93505060e0612be78c828d016128cf565b925050610100612bf98c828d016128cf565b9150509295985092959850929598565b60008115159050919050565b612c1e81612c09565b82525050565b6000602082019050612c396000830184612c15565b92915050565b600081519050919050565b600082825260208201905092915050565b6000819050602082019050919050565b612c7481612931565b82525050565b6000612c868383612c6b565b60208301905092915050565b6000602082019050919050565b6000612caa82612c3f565b612cb48185612c4a565b9350612cbf83612c5b565b8060005b83811015612cf0578151612cd78882612c7a565b9750612ce283612c92565b925050600181019050612cc3565b5085935050505092915050565b60006020820190508181036000830152612d178184612c9f565b905092915050565b612d2881612931565b8114612d3357600080fd5b50565b600081359050612d4581612d1f565b92915050565b600060208284031215612d6157612d606128a4565b5b6000612d6f84828501612d36565b91505092915050565b600081519050919050565b600082825260208201905092915050565b60005b83811015612db2578082015181840152602081019050612d97565b83811115612dc1576000848401525b50505050565b6000612dd282612d78565b612ddc8185612d83565b9350612dec818560208601612d94565b612df581612977565b840191505092915050565b612e09816128ae565b82525050565b6000610100820190508181036000830152612e2a818b612dc7565b90508181036020830152612e3e818a612dc7565b9050612e4d6040830189612e00565b8181036060830152612e5f8188612dc7565b90508181036080830152612e738187612dc7565b905081810360a0830152612e878186612dc7565b9050612e9660c0830185612e00565b612ea360e0830184612e00565b9998505050505050505050565b60008060008060808587031215612eca57612ec96128a4565b5b6000612ed887828801612d36565b945050602085013567ffffffffffffffff811115612ef957612ef86128a9565b5b612f0587828801612a85565b935050604085013567ffffffffffffffff811115612f2657612f256128a9565b5b612f3287828801612a85565b925050606085013567ffffffffffffffff811115612f5357612f526128a9565b5b612f5f87828801612a85565b91505092959194509250565b600080600080600080600060e0888a031215612f8a57612f896128a4565b5b600088013567ffffffffffffffff811115612fa857612fa76128a9565b5b612fb48a828b01612a85565b9750506020612fc58a828b016128cf565b965050604088013567ffffffffffffffff811115612fe657612fe56128a9565b5b612ff28a828b01612a85565b955050606088013567ffffffffffffffff811115613013576130126128a9565b5b61301f8a828b01612a85565b945050608088013567ffffffffffffffff8111156130405761303f6128a9565b5b61304c8a828b01612a85565b93505060a088013567ffffffffffffffff81111561306d5761306c6128a9565b5b6130798a828b01612a85565b92505060c061308a8a828b016128cf565b91505092959891949750929550565b600081519050919050565b600082825260208201905092915050565b6000819050602082019050919050565b6130ce816128ae565b82525050565b600082825260208201905092915050565b60006130f082612d78565b6130fa81856130d4565b935061310a818560208601612d94565b61311381612977565b840191505092915050565b600060a0830160008301516131366000860182612c6b565b50602083015161314960208601826130c5565b506040830151848203604086015261316182826130e5565b9150506060830151848203606086015261317b82826130e5565b9150506080830151848203608086015261319582826130e5565b9150508091505092915050565b60006131ae838361311e565b905092915050565b6000602082019050919050565b60006131ce82613099565b6131d881856130a4565b9350836020820285016131ea856130b5565b8060005b85811015613226578484038952815161320785826131a2565b9450613212836131b6565b925060208a019950506001810190506131ee565b50829750879550505050505092915050565b6000610100820190508181036000830152613253818b612dc7565b9050613262602083018a612e00565b81810360408301526132748189612dc7565b905081810360608301526132888188612dc7565b9050818103608083015261329c8187612dc7565b905081810360a08301526132b08186612dc7565b905081810360c08301526132c48185612c9f565b905081810360e08301526132d881846131c3565b90509998505050505050505050565b6000602082019050818103600083015261330181846131c3565b905092915050565b7f446f63746f7220616c7265616479207265676973746572656400000000000000600082015250565b600061333f601983612d83565b915061334a82613309565b602082019050919050565b6000602082019050818103600083015261336e81613332565b9050919050565b7f796f752061726520612070617469656e74000000000000000000000000000000600082015250565b60006133ab601183612d83565b91506133b682613375565b602082019050919050565b600060208201905081810360008301526133da8161339e565b9050919050565b7f77726f6e6720616464726573732120646f63746f7220646f6573206e6f74206560008201527f7869737473000000000000000000000000000000000000000000000000000000602082015250565b600061343d602583612d83565b9150613448826133e1565b604082019050919050565b6000602082019050818103600083015261346c81613430565b9050919050565b7f4e487b7100000000000000000000000000000000000000000000000000000000600052602260045260246000fd5b600060028204905060018216806134ba57607f821691505b6020821081036134cd576134cc613473565b5b50919050565b7f646f63746f7220646f6573206e6f742065786973747300000000000000000000600082015250565b6000613509601683612d83565b9150613514826134d3565b602082019050919050565b60006020820190508181036000830152613538816134fc565b9050919050565b7f4e487b7100000000000000000000000000000000000000000000000000000000600052603260045260246000fd5b600081905092915050565b600061358482612d78565b61358e818561356e565b935061359e818560208601612d94565b80840191505092915050565b60006135b68284613579565b915081905092915050565b600060608201905081810360008301526135db8186612dc7565b905081810360208301526135ef8185612dc7565b90506135fe6040830184612943565b949350505050565b7f4e487b7100000000000000000000000000000000000000000000000000000000600052601160045260246000fd5b6000613640826128ae565b91507fffffffffffffffffffffffffffffffffffffffffffffffffffffffffffffffff820361367257613671613606565b5b600182019050919050565b7f706c656173652061736b207468652070617469656e7420746f2067697665206160008201527f6363657373000000000000000000000000000000000000000000000000000000602082015250565b60006136d9602583612d83565b91506136e48261367d565b604082019050919050565b60006020820190508181036000830152613708816136cc565b9050919050565b7f796f7520617265206120646f63746f7200000000000000000000000000000000600082015250565b6000613745601083612d83565b91506137508261370f565b602082019050919050565b6000602082019050818103600083015261377481613738565b9050919050565b7f796f752061726520616c72656164792072656769737465726564000000000000600082015250565b60006137b1601a83612d83565b91506137bc8261377b565b602082019050919050565b600060208201905081810360008301526137e0816137a4565b9050919050565b600060c08201905081810360008301526138018189612dc7565b90506138106020830188612e00565b81810360408301526138228187612dc7565b905081810360608301526138368186612dc7565b9050818103608083015261384a8185612dc7565b905081810360a083015261385e8184612dc7565b9050979650505050505050565b7f77726f6e672061646472657373212070617469656e7420646f6573206e6f742060008201527f6578697374730000000000000000000000000000000000000000000000000000602082015250565b60006138c7602683612d83565b91506138d28261386b565b604082019050919050565b600060208201905081810360008301526138f6816138ba565b9050919050565b7f646f63746f7220616c7265616479206861766520616363657373000000000000600082015250565b6000613933601a83612d83565b915061393e826138fd565b602082019050919050565b6000602082019050818103600083015261396281613926565b9050919050565b600060408201905061397e6000830185612943565b61398b6020830184612943565b9392505050565b7f796f7520617265206e6f7420616c6c6f77656420746f2061636365737320746860008201527f657365207265706f727473000000000000000000000000000000000000000000602082015250565b60006139ee602b83612d83565b91506139f982613992565b604082019050919050565b60006020820190508181036000830152613a1d816139e1565b905091905056fea2646970667358221220e8d8d3fec4f1150f17b9486b46625b91b5e98f4894013782cdfd976dda936bc264736f6c634300080d0033",
  "immutableReferences": {},
  "source": "// SPDX-License-Identifier: MIT\r\npragma solidity >=0.4.22 <0.9.0;\r\n\r\ncontract medical {\r\n    struct patientDetails {\r\n        string name;\r\n        uint256 age;\r\n        string profilePic;\r\n        string bloodgrp;\r\n        string allergies;\r\n        string remarks;\r\n        address[] doctorAccessList;\r\n        patientReport[] reports;\r\n    }\r\n\r\n    struct patientReport {\r\n        address doc;\r\n        uint256 date;\r\n        string problem;\r\n        string medication;\r\n        string remarks;\r\n    }\r\n\r\n    struct doctorInfo {\r\n        string name;\r\n        string profilePic;\r\n        uint256 age;\r\n        address[] patientAccessList;\r\n        string clinicLocation;\r\n        string clinicName;\r\n        string specialization;\r\n        uint256 contact;\r\n        uint256 fees;\r\n    }\r\n\r\n    address[] public patientList;\r\n    address[] public doctorList;\r\n\r\n    mapping(address => patientDetails) patient;\r\n    mapping(address => doctorInfo) doctor;\r\n\r\n    event doctorAdded(\r\n        string name,\r\n        string profilePic,\r\n        uint256 age,\r\n        string clinicLocation,\r\n        string clinicName,\r\n        string specialization,\r\n        uint256 contact,\r\n        uint256 fees\r\n    );\r\n\r\n    event patientAdded(\r\n        string name,\r\n        uint256 age,\r\n        string profilePic,\r\n        string bloodgrp,\r\n        string allergies,\r\n        string remarks\r\n    );\r\n\r\n    event reportAdded(\r\n        address indexed patientAddr,\r\n        string indexed problem,\r\n        string medication,\r\n        string remarks,\r\n        uint256 indexed date,\r\n        address byDoc\r\n    );\r\n\r\n    event givenAccess(address by, address to);\r\n\r\n    function addDoctor(\r\n        string memory name,\r\n        string memory profilePic,\r\n        uint256 age,\r\n        string memory clinicLocation,\r\n        string memory clinicName,\r\n        string memory specialization,\r\n        uint256 contact,\r\n        uint256 fees,\r\n        uint256 update\r\n    ) public returns (bool) {\r\n        address addr = msg.sender;\r\n        if (update == 0) {\r\n            if (doctor[addr].age > 0) revert(\"Doctor already registered\");\r\n        }\r\n        if (patient[addr].age > 0) revert(\"you are a patient\");\r\n\r\n        doctor[addr].name = name;\r\n        doctor[addr].age = age;\r\n        doctor[addr].profilePic = profilePic;\r\n        doctor[addr].clinicLocation = clinicLocation;\r\n        doctor[addr].clinicName = clinicName;\r\n        doctor[addr].specialization = specialization;\r\n        doctor[addr].contact = contact;\r\n        doctor[addr].fees = fees;\r\n\r\n        if (update == 0) doctorList.push(addr);\r\n        emit doctorAdded(\r\n            name,\r\n            profilePic,\r\n            age,\r\n            clinicLocation,\r\n            clinicName,\r\n            specialization,\r\n            contact,\r\n            fees\r\n        );\r\n        return true;\r\n    }\r\n\r\n    function addPatient(\r\n        string memory name,\r\n        uint256 age,\r\n        string memory profilePic,\r\n        string memory bloodgrp,\r\n        string memory allergies,\r\n        string memory remarks,\r\n        uint256 update\r\n    ) public returns (bool) {\r\n        address addr = msg.sender;\r\n        if (doctor[addr].age > 0) revert(\"you are a doctor\");\r\n        if (update == 0) {\r\n            if (patient[addr].age > 0) revert(\"you are already registered\");\r\n        }\r\n        patient[addr].name = name;\r\n        patient[addr].age = age;\r\n        patient[addr].profilePic = profilePic;\r\n        patient[addr].bloodgrp = bloodgrp;\r\n        patient[addr].allergies = allergies;\r\n        patient[addr].remarks = remarks;\r\n        if (update == 0) patientList.push(addr);\r\n        emit patientAdded(name, age, profilePic, bloodgrp, allergies, remarks);\r\n        return true;\r\n    }\r\n\r\n    function getDoctorList() public view returns (address[] memory) {\r\n        return doctorList;\r\n    }\r\n\r\n    function getPatientList() public view returns (address[] memory) {\r\n        return patientList;\r\n    }\r\n\r\n    function getDoctorByAddress(address docAddr)\r\n        public\r\n        view\r\n        returns (\r\n            string memory,\r\n            string memory,\r\n            uint256,\r\n            string memory,\r\n            string memory,\r\n            string memory,\r\n            uint256,\r\n            uint256\r\n        )\r\n    {\r\n        if (doctor[docAddr].age == 0)\r\n            revert(\"wrong address! doctor does not exists\");\r\n        doctorInfo storage doc = doctor[docAddr];\r\n        return (\r\n            doc.name,\r\n            doc.profilePic,\r\n            doc.age,\r\n            doc.clinicLocation,\r\n            doc.clinicName,\r\n            doc.specialization,\r\n            doc.contact,\r\n            doc.fees\r\n        );\r\n    }\r\n\r\n    function getPatientByAddress(address patAddr)\r\n        public\r\n        view\r\n        returns (\r\n            string memory,\r\n            uint256,\r\n            string memory,\r\n            string memory,\r\n            string memory,\r\n            string memory,\r\n            address[] memory,\r\n            patientReport[] memory\r\n        )\r\n    {\r\n        if (patient[patAddr].age == 0)\r\n            revert(\"wrong address! patient does not exists\");\r\n        patientDetails storage pat = patient[patAddr];\r\n        return (\r\n            pat.name,\r\n            pat.age,\r\n            pat.profilePic,\r\n            pat.bloodgrp,\r\n            pat.allergies,\r\n            pat.remarks,\r\n            pat.doctorAccessList,\r\n            pat.reports\r\n        );\r\n    }\r\n\r\n    function getYourPatientAccessList() public view returns (address[] memory) {\r\n        if (doctor[msg.sender].age == 0) revert(\"doctor does not exists\");\r\n        return (doctor[msg.sender].patientAccessList);\r\n    }\r\n\r\n    function addReport(\r\n        address patientAddr,\r\n        string memory problem,\r\n        string memory medication,\r\n        string memory remarks\r\n    ) public returns (bool) {\r\n        if (doctor[msg.sender].age == 0) revert(\"doctor does not exists\");\r\n\r\n        for (\r\n            uint256 i = 0;\r\n            i < doctor[msg.sender].patientAccessList.length;\r\n            i++\r\n        ) {\r\n            if (doctor[msg.sender].patientAccessList[i] == patientAddr) {\r\n                patientReport memory report;\r\n\r\n                report.doc = msg.sender;\r\n                report.problem = problem;\r\n                report.medication = medication;\r\n                report.remarks = remarks;\r\n                report.date = block.timestamp;\r\n\r\n                patient[patientAddr].reports.push(report);\r\n\r\n                emit reportAdded(\r\n                    patientAddr,\r\n                    problem,\r\n                    medication,\r\n                    remarks,\r\n                    block.timestamp,\r\n                    msg.sender\r\n                );\r\n                return true;\r\n            }\r\n        }\r\n        revert(\"please ask the patient to give access\");\r\n    }\r\n\r\n    function giveAccessToDoc(address docAddr) public returns (bool) {\r\n        if (doctor[docAddr].age == 0) revert(\"doctor does not exists\");\r\n        for (uint256 i = 0; i < doctor[docAddr].patientAccessList.length; i++) {\r\n            if (doctor[docAddr].patientAccessList[i] == msg.sender)\r\n                revert(\"doctor already have access\");\r\n        }\r\n        doctor[docAddr].patientAccessList.push(msg.sender);\r\n        patient[msg.sender].doctorAccessList.push(docAddr);\r\n        emit givenAccess(msg.sender, docAddr);\r\n        return true;\r\n    }\r\n\r\n    function getAccessedDoctors() public view returns (address[] memory) {\r\n        return patient[msg.sender].doctorAccessList;\r\n    }\r\n\r\n    function viewReports(address patientAddr)\r\n        public\r\n        view\r\n        returns (patientReport[] memory)\r\n    {\r\n        if (msg.sender == patientAddr) return patient[patientAddr].reports;\r\n        for (\r\n            uint256 i = 0;\r\n            i < doctor[msg.sender].patientAccessList.length;\r\n            i++\r\n        ) {\r\n            if (doctor[msg.sender].patientAccessList[i] == patientAddr)\r\n                return patient[patientAddr].reports;\r\n        }\r\n        revert(\"you are not allowed to access these reports\");\r\n    }\r\n}\r\n",
  "sourcePath": "C:\\Users\\rasto\\Desktop\\projects\\medDocs\\src\\contracts\\medical.sol",
  "compiler": {
    "name": "solc",
    "version": "0.8.13+commit.abaa5c0e.Emscripten.clang"
  },
  "schemaVersion": "3.4.7",
  "updatedAt": "2023-05-30T10:35:43.527Z",
  "networkType": "ethereum",
  "devdoc": {
    "kind": "dev",
    "methods": {},
    "version": 1
  },
  "userdoc": {
    "kind": "user",
    "methods": {},
    "version": 1
  }
}